{
  "contractName": "Calculator",
  "abi": [
    {
      "inputs": [],
      "payable": false,
      "stateMutability": "nonpayable",
      "type": "constructor"
    },
    {
      "constant": true,
      "inputs": [],
      "name": "getResult",
      "outputs": [
        {
          "name": "",
          "type": "uint256"
        }
      ],
      "payable": false,
      "stateMutability": "view",
      "type": "function"
    },
    {
      "constant": false,
      "inputs": [
        {
          "name": "num",
          "type": "uint256"
        }
      ],
      "name": "addToNumber",
      "outputs": [
        {
          "name": "",
          "type": "uint256"
        }
      ],
      "payable": false,
      "stateMutability": "nonpayable",
      "type": "function"
    },
    {
      "constant": false,
      "inputs": [
        {
          "name": "num",
          "type": "uint256"
        }
      ],
      "name": "substractFromNumber",
      "outputs": [
        {
          "name": "",
          "type": "uint256"
        }
      ],
      "payable": false,
      "stateMutability": "nonpayable",
      "type": "function"
    },
    {
      "constant": true,
      "inputs": [],
      "name": "multiplyWithNumber",
      "outputs": [
        {
          "name": "",
          "type": "uint256"
        }
      ],
      "payable": false,
      "stateMutability": "view",
      "type": "function"
    },
    {
      "constant": true,
      "inputs": [],
      "name": "divideNumberBy",
      "outputs": [
        {
          "name": "",
          "type": "uint256"
        }
      ],
      "payable": false,
      "stateMutability": "view",
      "type": "function"
    }
  ],
  "bytecode": "0x6060604052341561000f57600080fd5b600a6000819055506101d8806100266000396000f30060606040526004361061006d576000357c0100000000000000000000000000000000000000000000000000000000900463ffffffff16806306ccd230146100725780630ce4805c146100a957806382f7d5c3146100d2578063de292789146100fb578063ef455b3c14610124575b600080fd5b341561007d57600080fd5b610093600480803590602001909190505061015b565b6040518082815260200191505060405180910390f35b34156100b457600080fd5b6100bc610176565b6040518082815260200191505060405180910390f35b34156100dd57600080fd5b6100e561017f565b6040518082815260200191505060405180910390f35b341561010657600080fd5b61010e610188565b6040518082815260200191505060405180910390f35b341561012f57600080fd5b6101456004808035906020019091905050610191565b6040518082815260200191505060405180910390f35b60008160008082825401925050819055506000549050919050565b60008054905090565b60008054905090565b60008054905090565b600081600080828254039250508190555060005490509190505600a165627a7a723058203a9aec1f718788924981311996c4682aeb3ca0293880051cdaaa4ebf2c0bbe1e0029",
  "source": "pragma solidity ^0.4.6;\n\ncontract Calculator {\n\n  uint result;\n\n  function Calculator() public {\n    // constructor\n    result=10;\n  }\n\n  // returns the result\n  function getResult() public constant returns (uint){\n    return result;\n  }\n\n  // result = result + num\n  function addToNumber(uint num) public returns (uint) {\n    result += num;\n    return result;\n  }\n\n  // result = result - num\n  function substractFromNumber(uint num) public returns (uint) {\n    result -= num;\n    return result;\n  }\n\n  // result = result * num\n  function multiplyWithNumber() public view returns (uint) {\n    return result;\n  }\n\n  // result = result / num\n  function divideNumberBy() public view returns (uint) {\n    return result;\n  }\n\n}\n",
  "sourcePath": "C:\\Users\\Rajeev\\Documents\\Course\\Blockchain Course\\workspace\\Blockchain-Course-Calculator\\contracts\\Calculator.sol",
  "compiler": {
    "name": "solc",
    "version": "0.4.19+commit.c4cbbb05.Emscripten.clang"
  },
  "schemaVersion": "2.0.0",
  "updatedAt": "2018-03-19T01:27:49.839Z"
}