{
  "contractName": "CalculatorV2",
  "abi": [
    {
      "inputs": [
        {
          "name": "num",
          "type": "uint256"
        }
      ],
      "payable": false,
      "stateMutability": "nonpayable",
      "type": "constructor"
    },
    {
      "anonymous": false,
      "inputs": [
        {
          "indexed": false,
          "name": "n",
          "type": "uint256"
        }
      ],
      "name": "NumberAdded",
      "type": "event"
    },
    {
      "anonymous": false,
      "inputs": [
        {
          "indexed": false,
          "name": "n",
          "type": "uint256"
        }
      ],
      "name": "NumberSubtracted",
      "type": "event"
    },
    {
      "anonymous": false,
      "inputs": [
        {
          "indexed": false,
          "name": "n",
          "type": "uint256"
        }
      ],
      "name": "NumberMultiplied",
      "type": "event"
    },
    {
      "anonymous": false,
      "inputs": [
        {
          "indexed": false,
          "name": "n",
          "type": "uint256"
        }
      ],
      "name": "NumberDivided",
      "type": "event"
    },
    {
      "constant": true,
      "inputs": [],
      "name": "getResult",
      "outputs": [
        {
          "name": "",
          "type": "uint256"
        }
      ],
      "payable": false,
      "stateMutability": "view",
      "type": "function"
    },
    {
      "constant": false,
      "inputs": [
        {
          "name": "num",
          "type": "uint256"
        }
      ],
      "name": "addToNumber",
      "outputs": [
        {
          "name": "",
          "type": "uint256"
        }
      ],
      "payable": false,
      "stateMutability": "nonpayable",
      "type": "function"
    },
    {
      "constant": false,
      "inputs": [
        {
          "name": "num",
          "type": "uint256"
        }
      ],
      "name": "substractNumber",
      "outputs": [
        {
          "name": "",
          "type": "uint256"
        }
      ],
      "payable": false,
      "stateMutability": "nonpayable",
      "type": "function"
    },
    {
      "constant": false,
      "inputs": [
        {
          "name": "num",
          "type": "uint256"
        }
      ],
      "name": "multiplyWithNumber",
      "outputs": [
        {
          "name": "",
          "type": "uint256"
        }
      ],
      "payable": false,
      "stateMutability": "nonpayable",
      "type": "function"
    },
    {
      "constant": false,
      "inputs": [
        {
          "name": "num",
          "type": "uint256"
        }
      ],
      "name": "divideByNumber",
      "outputs": [
        {
          "name": "",
          "type": "uint256"
        }
      ],
      "payable": false,
      "stateMutability": "nonpayable",
      "type": "function"
    }
  ],
  "bytecode": "0x6060604052341561000f57600080fd5b60405160208061033f8339810160405280805190602001909190505080600081905550506102fd806100426000396000f30060606040526004361061006d576000357c0100000000000000000000000000000000000000000000000000000000900463ffffffff16806306ccd230146100725780630b7e4e7f146100a9578063b4679b06146100e0578063de29278914610117578063f5cb911d14610140575b600080fd5b341561007d57600080fd5b6100936004808035906020019091905050610177565b6040518082815260200191505060405180910390f35b34156100b457600080fd5b6100ca60048080359060200190919050506101c9565b6040518082815260200191505060405180910390f35b34156100eb57600080fd5b610101600480803590602001909190505061021b565b6040518082815260200191505060405180910390f35b341561012257600080fd5b61012a61026d565b6040518082815260200191505060405180910390f35b341561014b57600080fd5b6101616004808035906020019091905050610276565b6040518082815260200191505060405180910390f35b60008160008082825401925050819055507fae3addfccd9152bd45552621c986157cf223c02d568e9c2c678baa8dbf81a233826040518082815260200191505060405180910390a16000549050919050565b60008160008082825403925050819055507f439edab735a689015068ab41d6d30bd005705cfa5a000161404fafd0c7b78673826040518082815260200191505060405180910390a16000549050919050565b60008160008082825402925050819055507fa895b6fc5616dc5f28ac38cbba65bf73cc432c1d07abc566c2ee5a77d7e14b75826040518082815260200191505060405180910390a16000549050919050565b60008054905090565b60008160008082825481151561028857fe5b04925050819055507fed0bc23928add0162a999d4ea2049c291319a7a8963d7e72136b37c73ee4f991826040518082815260200191505060405180910390a160005490509190505600a165627a7a723058202c0e3861fa4df88c4f71dd87bcdff7dde172e0dbca70a9ef790c555907ef9dbe0029",
  "source": "pragma solidity ^0.4.6;\n\ncontract CalculatorV2 {\n\n  uint result;\n\n  event NumberAdded(uint n);\n  event NumberSubtracted(uint n);\n  event NumberMultiplied(uint n);\n  event NumberDivided(uint n);\n\n  function CalculatorV2(uint num) public {\n    // constructor\n    result=num;\n  }\n\n  // returns the result\n  function getResult() public constant returns (uint){\n    return result;\n  }\n\n  // result = result + num\n  function addToNumber(uint num) public returns (uint) {\n    result += num;\n    NumberAdded(num);\n    return result;\n  }\n\n  // result = result - num\n  function substractNumber(uint num) public returns (uint) {\n    result -= num;\n    NumberSubtracted(num);\n    return result;\n  }\n\n  // result = result * num\n  function multiplyWithNumber(uint num) public returns (uint) {\n    result *= num;\n    NumberMultiplied(num);\n    return result;\n  }\n\n  // result = result / num\n  function divideByNumber(uint num) public returns (uint) {\n    result /= num;\n    NumberDivided(num);\n    return result;\n  }\n\n}\n",
  "sourcePath": "C:\\Users\\Rajeev\\Documents\\Course\\Blockchain Course\\workspace\\Blockchain-Course-Calculator\\contracts\\CalculatorV2.sol",
  "compiler": {
    "name": "solc",
    "version": "0.4.19+commit.c4cbbb05.Emscripten.clang"
  },
  "schemaVersion": "2.0.0",
  "updatedAt": "2018-03-19T01:27:49.840Z"
}